:10002600CAD5B5BDD6B8C1EEA3ACCFF2C7B0210ACA
:1000360000CAD5B5BDD6B8C1EEA3ACCFF2BAF3218E
:100046000A00CAD5B5BDD6B8C1EEA3ACCFF2D7F378
:10005600210A00CAD5B5BDD6B8C1EEA3ACCFF2D33E
:10006600D2210A00CAD5B5BDD6B8C1EEA3ACCDA380
:10007600D6B9210A003D53706F7274536974756165
:1000860074696F6E3D0020202020466F7277617282
:10009600642020202000202020204261636B7761AD
:1000A600726420202020002020202020204C65661D
:1000B6007420202020202000202020202052696744
:1000C6006874202020202000202020202020537427
:1000D6006F7020202020202000202020202020209B
:0A00E60020202020202020202000F0
:1003DE00C101C100010E00010D0005080000000062
:0103EE00000E
:0C02B700E4FDFC7F381203507F057E0040
:1002C300E4FDFCC3ED9FEC9E5015E4FBFA0BBB0071
:0F02D300010ABA07F8BBD0F50DBD00010C80E49D
:0102E20022F9
:100003007F0112001AC2917F0112001AC2A57F015B
:0700130012001AC2A57F01D3
:07001A007E0A00DEFDDFF9A4
:0100210022BC
:10030C007580FFC2907F0112001AD2917F011200FA
:10031C001A12000FD2A57F0112001AE58020E7F116
:03032C00AF80227D
:1003CB00AD0712030C8D80D290120003D2A57F01D2
:0303DB0002001A03
:10035000AB07ED4C600312030C8B80C290120003BC
:07036000D2A57F0102001A83
:1002E300E4F5801202B81202B71202B77D017C0056
:1002F3007F381203507F081203507F011203507F8F
:09030300061203507F0C020350A6
:10032F00AE07AA0353050153060FED6003430640C2
:10033F00430680AF067D017C00120350AF0202031B
:01034F00CBE2
:080270007A007BDF7D01E4FF51
:080278008D0F8A108B11A907FC
:10028000E4F512530F0153010FE5112512F582E435
:100290003510F583E493FBD3941974809480401651
:1002A000E9D3940F7480948050DFAF01AD0F120337
:0602B0002F05120980D3A6
:0102B6002225
:10036700E4FFEF90002693600AF5993099FDC29952
:030377000F80EF05
:01037A002260
:10037B00E4FFEF90003793600AF5993099FDC2992D
:03038B000F80EFF1
:01038E00224C
:10038F00E4FFEF90004893600AF5993099FDC29908
:03039F000F80EFDD
:0103A2002238
:1003A300E4FFEF90005993600AF5993099FDC299E3
:0303B3000F80EFC9
:0103B6002224
:1003B700E4FFEF90006A93600AF5993099FDC299BE
:0303C7000F80EFB5
:0103CA002210
:0903F000D292C293D296C2972268
:0903F900C292D293C296D297225F
:09040200C292D293D296C2972255
:09040B00D292C293C296D297224C
:09041400C292C293C296C2972263
:03002300020226B0
:10022600C0E0C0D075D000C000309837C29885991C
:100236000DE50DB44F0FE50E700B7408250EF8A6EC
:100246000DD200801E30001B050E7408250EF8A680
:100256000DC3E50E9402748094804007750E00C2AB
:0A02660000D201D000D0D0D0E03269
:1000F0007F0A7E001202C31202E31202BF7A007B63
:100100007BE4FDFF1202787A007BCE1202747589BF
:1001100020758DFD758BFD759850E4F587D28ED2D4
:10012000ACD2AF3001FDC201E508B44FF6E509B429
:100130004EF1E50A24BE601E24F6602924FA6034DC
:10014000146044240D70DC1203671203F012027075
:100150007A007B8C802B12037B1203F91202707AD7
:10016000007B9C801C12038F1204021202707A0022
:100170007BAD800D1203A312040B1202707A007B78
:10018000BE1202740201231203B712041412027089
:0A0190007A007BCE120274020123F4
:0300000002019A60
:0C019A00787FE4F6D8FD7581200201E1B9
:1001A6000200F0E493A3F8E493A34003F68001F27F
:1001B60008DFF48029E493A3F85407240CC8C3335A
:1001C600C4540F4420C8834004F456800146F6DF29
:1001D600E4800B01020408102040809003DEE47ED8
:1001E600019360BCA3FF543F30E509541FFEE4931E
:1001F600A360010ECF54C025E060A840B8E493A3E5
:10020600FAE493A3F8E493A3C8C582C8CAC583CA0F
:10021600F0A3C8C582C8CAC583CADFE9DEE780BEC7
:0103EF00000D
:00000001FF
